:1000000061C000000C9498270C94BF2783C00000A7
:1000100081C000007FC000007DC000007BC00000E8
:1000200079C0000077C0000075C0000073C00000F8
:1000300071C000000C9454246DC000006BC000001F
:100040000C94E62767C000000C94C52A0C94F72A8C
:1000500061C000005FC000005DC000005BC0000028
:1000600059C0000057C00000000000080002010055
:100070000003040700000000000000000102040863
:100080001020408001020408102001020408102002
:10009000040404040404040402020202020203032E
:1000A00003030303000000002300260029000000D2
:1000B0000000250028002B0000000000240027007D
:1000C0002A001C2B11241FBECFEFD8E0DEBFCDBF0E
:1000D00011E0A0E0B1E0ECEBF7E502C005900D9275
:1000E000AE3DB107D9F725E0AEEDB1E001C01D92FC
:1000F000A636B207E1F710E0C2E6D0E004C02197CF
:10010000FE010E94AD2BC136D107C9F70E944F25D1
:100110000C94DC2B75CFCF93DF93EC0170E060E0A3
:100120006C177D070CF5072E000C880B990B0E94AD
:10013000602620E030E0A9010E94C52520E030E0E3
:10014000A9010E94C52520E030E040E450E40E946F
:10015000C52520E030E040E450E40E94C4250E9420
:100160002D266F5F7F4FDCCFDF91CF910895CF9326
:10017000DF938091EE019091EF010E947329EC01D1
:100180008091F4019091F501C6DF8091F00190918A
:10019000F1010E947329019771F48091F20190910D
:1001A000F301219771F401969093F3018093F2018A
:1001B000DF91CF9108958091F2019091F301CD2BC1
:1001C00091F30197F1CFCF93DF938091E601909166
:1001D000E7010E947329EC018091EC019091ED01FF
:1001E0009ADF8091E8019091E9010E9473290197BB
:1001F00071F48091EA019091EB01219771F40196DD
:100200009093EB018093EA01DF91CF910895809163
:10021000EA019091EB01CD2B91F30197F1CFCF93B0
:10022000DF938091DE019091DF010E947329EC0140
:100230008091E4019091E5016EDF8091E001909161
:10024000E1010E947329019771F48091E20190917C
:10025000E301219771F401969093E3018093E20109
:10026000DF91CF9108958091E2019091E301CD2B30
:1002700091F30197F1CFCF93DF938091E8019091B3
:10028000E9010E947329EC018091EC019091ED014C
:1002900042DF8091E6019091E7010E947329019766
:1002A00071F48091EA019091EB01CD2B71F40196EC
:1002B0009093EB018093EA01DF91CF9108958091B3
:1002C000EA019091EB01219791F30197F1CFCF9340
:1002D000DF938091E0019091E1010E947329EC018C
:1002E0008091E4019091E50116DF8091DE0190910B
:1002F000DF010E947329019771F48091E2019091CE
:10030000E301CD2B71F401969093E3018093E20118
:10031000DF91CF9108958091E2019091E3012197BF
:1003200091F30197F1CFCF93DF938091F0019091FA
:10033000F1010E947329EC018091F4019091F50183
:10034000EADE8091EE019091EF010E9473290197FE
:1003500071F48091F2019091F301CD2B71F401962B
:100360009093F3018093F201DF91CF9108958091F2
:10037000F2019091F301219791F30197F1CF0F933F
:100380001F93CF93DF938C01EC0183E0CC0FDD1F33
:100390008A95E1F7C252DE4F798368835B834A8393
:1003A0008881998160E00E940A298A819B8160E0AE
:1003B0000E940A298881998161E00E9446298A81E8
:1003C0009B8161E00E94462901301105D9F102307C
:1003D000110509F466C0012B09F092C08091DE017D
:1003E0009091DF0102978431910530F58A5C9E4F30
:1003F000FC018081082E000C990B41E050E067E67B
:1004000071E00E9478278091E0019091E1010297CC
:1004100084319105A0F48A5C9E4FFC018081082EF6
:10042000000C990B41E050E06FE071E0DF91CF915B
:100430001F910F910C9478278FEF9FEFDECF8FEFF6
:100440009FEFF0CF8091E6019091E7010297843110
:10045000910508F58A5C9E4FFC018081082E000CF6
:10046000990B41E050E06BE371E00E9478278091A6
:10047000E8019091E90102978431910578F48A5C52
:100480009E4FFC018081082E000C990B41E050E04A
:1004900063EE70E0CBCF8FEF9FEFE3CF8FEF9FEF57
:1004A000F5CF8091EE019091EF0102978431910593
:1004B00008F58A5C9E4FFC018081082E000C990B88
:1004C00041E050E063E971E00E9478278091F001FB
:1004D0009091F10102978431910578F48A5C9E4FE6
:1004E000FC018081082E000C990B41E050E067EB85
:1004F00070E09CCF8FEF9FEFE3CF8FEF9FEFF5CFB3
:10050000DF91CF911F910F91089523E0880F991FDC
:100510002A95E1F7FC01E252FE4F8481958108950E
:10052000CF93DF93882349F0EB0181500E94C628C6
:1005300099838883DF91CF910895FB011182108206
:10054000F9CF0F931F938B019C0183E0369527957C
:10055000179507958A95D1F70A501E4F462F477079
:1005600021E030E0F90102C0EE0FFF1F4A95E2F7EB
:10057000AF01F80120812423CB010196211102C093
:1005800090E080E01F910F9108950F931F938B01CE
:100590009C0183E036952795179507958A95D1F7A5
:1005A000677081E090E001C0880F6A95EAF7F80172
:1005B000EA50FE4F2081452B31F4809582238083C1
:1005C0001F910F910895822BFACFCF92DF92EF9275
:1005D000FF92CF93DF936B017C0160E08EE0C81641
:1005E000D104E104F10490F48EE08C0D0E940A29FC
:1005F000E6012196AE01C701B601C7DFCE01DF914A
:10060000CF91FF90EF90DF90CF9008958C2DEECF9B
:10061000882341F08150682F70E090E080E050E046
:1006200040E0B3CF089590E080E008950F931F93CA
:10063000009709F487C06115710509F483C0009122
:1006400008011091090120910A0130910B010E3F20
:100650001F4F2F4F3F4F09F066C04FEF5FEFBA01BA
:10066000409308015093090160930A0170930B01B4
:10067000409108015091090160910A0170910B01AC
:10068000DC011296ED91FC9180819181A281B38170
:100690008093690290936A02A0936B02B0936C02FC
:1006A00084819581A681B7818093650290936602CB
:1006B000A0936702B093680280859185A285B38577
:1006C0008093610290936202A0936302B0936402EC
:1006D00084859585A685B78580935D0290935E029B
:1006E000A0935F02B09360021092590210925A02D6
:1006F00010925B0210925C02DED480E898E0909346
:1007000000028093FF019093020280930102C2D302
:10071000009731F421E030E030936E0220936D02B7
:100720001F910F91089500910801109109012091E6
:100730000A0130910B01DB010D931D932D933C9326
:10074000139796CF8FEF9FEFEBCF8F929F92AF9241
:10075000BF92CF92DF92EF92FF921F93CF93DF93DE
:100760004B015C011091700282E090E090936E0268
:1007700080936D0281149104A104B10441F480912D
:100780007002811104C080916F02C1E08111C0E04C
:10079000C12CD12C760180917002811106C080910C
:1007A0006F02811102C0CC23D9F083E090E09093D6
:1007B0006E0280936D02CC2379F1CCE9DFEF111149
:1007C00002C00E94E40BCE01DF91CF911F91FF90F8
:1007D000EF90DF90CF90BF90AF909F908F90089553
:1007E0006AE070E080E090E00E94552880E1C80E49
:1007F00087E2D81EE11CF11C8FEF88169806A80628
:10080000B80631F0C1E08C149D04AE04BF0408F0BA
:10081000C0E080E073D3BFCFD0E0C0E0D0CFCF92B4
:10082000DF92EF92FF920F931F93CF93DF938F3F4F
:10083000910511F008F050C020916D0230916E02C8
:100840002330310539F020916D0230916E02213054
:10085000310531F424E030E030936E0220936D02D4
:100860006A017B01EC0182309105A0F011E0AE013C
:10087000C701B6010ED3AB01BC01CE011123F9F0C3
:10088000DF91CF911F910F91FF90EF90DF90CF906C
:100890000C94080E8C01000F111F01501E4FD8013F
:1008A0008D919C91892B11F30E94120E0297F1F603
:1008B000D801ED91FC91CE010995182FD8CF0E9457
:1008C0002A0E90E080E0DF91CF911F910F91FF9071
:1008D000EF90DF90CF9008958FEF9FEFF4CF80E0FF
:1008E0000DC3CF93DF9386E090E090936E028093E8
:1008F0006D025DD3EC01EFEFF1E084E0DF011D92CA
:100900008A95E9F7F9D610926E0210926D02CE0127
:10091000DF91CF91089580916F02089580915802E0
:100920000895609308017093090180930A019093E0
:100930000B0190E080E00895CF92DF92EF92FF925A
:10094000C0900001D0900101E0900201F0900301FD
:10095000A7019601609136057091370580913805A1
:10096000909139050E942926882341F0C0923605CE
:10097000D0923705E0923805F092390590E080E09A
:10098000C4DD092E000CAA0BBB0B80934605909387
:100990004705A0934805B0934905C0900401D09045
:1009A0000501E0900601F0900701A7019601609112
:1009B00042057091430580914405909145050E9440
:1009C0002926882341F0C0924205D0924305E09247
:1009D0004405F092450561E170E080E090E0B1DD12
:1009E000909341058093400543E050E06AE475E050
:1009F00097DD60912F0270913002809131029091C9
:100A000032026F5F7F4F8F4F9F4F60932F02709323
:100A1000300280933102909332020E945E269B0145
:100A2000AC01609133027091340280913502909153
:100A300036020E94142760932B0270932C0280933D
:100A40002D0290932E02FF90EF90DF90CF900895AB
:100A5000AF92BF92CF92DF92EF92FF921F93CF930C
:100A6000DF9384E090E0DDD0E5E1F2E080E090E02B
:100A7000A0E8BFEB82A393A3A4A3B5A38AE097ED5C
:100A8000A3E2BCE3868F978FA0A3B1A382E497E58E
:100A9000ABE3B2E184839583A683B7838AE39CEAC0
:100AA000A4E7BDEA80879187A287B38783EA9EE1A6
:100AB000AFE8BDE584879587A687B7878CE59AEC74
:100AC000A9E4B8E2808B918BA28BB38BA9E0B2E052
:100AD000B383A283E3E0F2E01196FC93EE938AE401
:100AE00091E091838083938382839583848389E2D9
:100AF00092E015969C938E93149789E192E0139659
:100B00009C938E9312978BE292E017969C938E9310
:100B10001697C0E3D5E0188280E0A82E81E0B82EB9
:100B2000F50180819181A281B3818E839F83A88703
:100B3000B987C12CD12C7601C394C982DA82EB82A9
:100B4000FC8243E050E062E070E090E080E017DC7F
:100B500011E01D831A86F50184819581A681B781F4
:100B60008A8B9B8BAC8BBD8BCB86DC86ED86FE8621
:100B700061E170E080E090E028DD998B888B1F8731
:100B8000DF91CF911F91FF90EF90DF90CF90BF90BA
:100B9000AF90089580913005811103C081E080936A
:100BA000300580913A0581111DC081E080933A059E
:100BB00080913B0590913C05A0913D05B0913E058B
:100BC0000197A105B10571F480913F05882351F08B
:100BD00061E170E080E090E0B4DC909341058093A7
:100BE000400516CD089560E070E080E89FE7089525
:100BF00060E070E080E89FE7089560E070E080E8E2
:100C00009FEF089560E070E080E89FEF089560E056
:100C100070E080EC9FEF089560E070E080EC9FEF63
:100C20000895F5DF609358057093590580935A0530
:100C300090935B05F1DF60934C0570934D058093B5
:100C40004E0590934F05CFDF609354057093550583
:100C50008093560590935705CBDF609350057093B2
:100C600051058093520590935305C7DF60935C054F
:100C700070935D0580935E0590935F05C3DF60937D
:100C800060057093610580936205909363050895F4
:100C90004F925F926F927F928F929F92AF92BF928C
:100CA000CF92DF92EF92FF920F931F93F8944090B0
:100CB00048025090490260904A0270904B02C090E6
:100CC0003C02D0903D02E0903E02F0903F02452B66
:100CD00009F0A4C09B01AC01241935094609570944
:100CE00029013A01009144021091450220914602E7
:100CF0003091470248015901840C951CA61CB71C71
:100D000080169106A206B306A0F40091400210914D
:100D1000410220914202309143020F5F1F4F2F4F3B
:100D20003F4F0093400210934102209342023093C0
:100D300043028092440290924502A0924602B092F1
:100D400047020091400210914102209142023091ED
:100D5000430280924C0290924D02A0924E02B092B9
:100D60004F0200935002109351022093520230938D
:100D70005302609348027093490280934A02909311
:100D80004B02A0E1B7E2A30192010E94B32B6C0DCC
:100D90007D1D8E1D9F1D60933C0270933D028093CC
:100DA0003E0290933F0200910801109109012091A9
:100DB0000A0130910B010F3F1F4F2F4F3F4FF1F0B2
:100DC000009108011091090120910A0130910B0155
:100DD0000E3F1F4F2F4F3F4F89F0C0900801D0901A
:100DE0000901E0900A01F0900B0121E08C149D04B0
:100DF000AE04BF0408F420E02093580278941F91B9
:100E00000F91FF90EF90DF90CF90BF90AF909F90A9
:100E10008F907F906F905F904F9008954B015C0191
:100E200084189508A608B708A3019201261B370B62
:100E3000480B590B6415750586059705D0F0821689
:100E40009306A406B50640F420E030E0A901811421
:100E50009104A104B10491F4A0E1B7E20E94B32B84
:100E6000A7019601261B370B480B590BCA01B90184
:100E7000C5CF82169306A406B50670F7A0E1B7E2C7
:100E8000A50194010E94B32B6C0D7D1D8E1D9F1D2D
:100E9000B5CFFECECF93DF9300D000D0CDB7DEB775
:100EA0001C821B821A8219821092540210925502DF
:100EB0001092560210925702BE016F5F7F4FCE0113
:100EC00003960E94382469817A818B819C810E94DB
:100ED0002A1D009761F4BE016F5F7F4FCE0103961C
:100EE0000E94442469817A818B819C8127D50F904F
:100EF0000F900F900F90DF91CF910895FF920F9375
:100F00001F93CF93DF93082F60E070E0CB010E9426
:100F10005528FF24F3940E94151CEC01892B89F0BD
:100F200010E0CE3F8FEFD80769F0002361F160E059
:100F300070E0CB010E94552881E090E0892B59F3A5
:100F400022C011E01ED5EC01892B21F0CE3F8FEF9E
:100F5000D80759F711111EC011E0229609F410E0CC
:100F60000E94C61BEC01892B21F0CE3F8FEFD807E2
:100F7000E1F6111111C011E0CE3F8FEFD80709F44F
:100F800010E001110BC0CE01DF91CF911F910F91A5
:100F9000FF90089511E0E4CF11E0F3CF60E070E03E
:100FA000CB010E9455281F25812F90E0C7CFCF93FA
:100FB000DF9380915802882321F060E070E0CB013C
:100FC00047D630D6D0E0C0E0892B71F06AE070E0FF
:100FD00080E090E00E94552881E090DF23D62196A2
:100FE000C03D27E0D20781F722D60E947E1D1092D5
:100FF000700210926F021092690210926A021092AF
:101000006B0210926C0210926502109266021092AE
:1010100067021092680210926102109262021092AE
:1010200063021092640210925D0210925E021092AE
:101030005F02109260021092590210925A021092AE
:101040005B0210925C024EEF5FEF6FEF7FEF409319
:1010500008015093090160930A0170930B011092EB
:101060005802ECE4F2E028E0DF011D922A95E9F74E
:10107000109248021092490210924A0210924B02BA
:1010800010924402109245021092460210924702BA
:1010900010924002109241021092420210924302BA
:1010A00010923C0210923D0210923E0210923F02BA
:1010B000DF91CF91089510927C0210927D021092E0
:1010C0007E0210927F0210927B02809184029091A6
:1010D000850290937A02809379021092780210929E
:1010E000770210927302109274021092750210929D
:1010F0007602109281021092800290E080E00895C2
:10110000CF92DF92EF92FF920F931F93CF938C01B8
:10111000892B09F055C0209184023091850280917D
:10112000790290917A024091840250918502509305
:101130007A02409379022817390781F010927802D9
:10114000109277021092730210927402109275023C
:101150001092760210928102109280028091840295
:1011600090918502019761F58091800290918102B2
:10117000892B21F480910C01811112C08091800291
:10118000909181020197E1F4809173029091740231
:10119000A0917502B09176020197A105B10581F485
:1011A00010927302109274021092750210927602DD
:1011B00010920C0182E090E0909381028093800273
:1011C0008091840290918502019709F01CC1809161
:1011D0009A0290919B028017910709F014C18091A7
:1011E000960290919702A0919802B091990200976F
:1011F00009F409C12091950221110DC04091960278
:10120000509197026091980270919902452B462B5C
:10121000472B09F4F8C020918002309181022230DE
:10122000310509F0F0C0209177022111ECC0FC01DA
:10123000C080D180E280F38080917B02882309F412
:10124000D3C08091870290918802892B09F4FDC058
:10125000209187023091880281E02230310509F027
:1012600080E02091870230918802C1E02130310571
:1012700049F02091870230918802C1E02230310587
:1012800009F0C0E0882309F456C020919102309102
:1012900092024091930250919402C701B6010E94BC
:1012A000102787FD14C02091910230919202409145
:1012B00093025091940260917C0270917D02809122
:1012C0007E0290917F020E94292687FD22C02091F4
:1012D0009102309192024091930250919402C70181
:1012E000B6010E941027181634F520919102309112
:1012F0009202409193025091940260917C0270910D
:101300007D0280917E0290917F020E9429268111A8
:1013100012C08091890290918A02A0918B02B091B3
:101320008C02892B8A2B8B2B19F481E08093780215
:1013300081E080937702CC2309F456C0209191027A
:10134000309192024091930250919402C701B601EC
:101350000E94292687FF14C02091910230919202A9
:10136000409193025091940260917C0270917D02B1
:1013700080917E0290917F020E94102787FF22C0F9
:1013800020919102309192024091930250919402E7
:10139000C701B6010E942926811126C02091910221
:1013A00030919202409193025091940260917C029C
:1013B00070917D0280917E0290917F020E941027A1
:1013C000181694F48091890290918A02A0918B0260
:1013D000B0918C02892B8A2B8B2B19F481E080939E
:1013E000780281E08093770281E0909177029111F9
:1013F00080E080937B02C0927C02D0927D02E092DA
:101400007E02F0927F02012B09F067C18091800279
:1014100090918102892BD9F4109286021092770262
:1014200080910C01882379F082E090E09093810212
:101430008093800210920C012091840230918502E9
:1014400081E0232BE9F080E01BC081E00ACF1092FD
:101450000C0180918602882349F010927802109244
:1014600081021092800210928602EDCF8091840258
:1014700090918502892BE1F080917702109277029A
:1014800020918002309181022230310509F45EC042
:1014900088F42115310509F448C02130310509F4DB
:1014A000F3C010927802109277021092860238C030
:1014B00081E0E6CF2330310509F4B1C02430310595
:1014C00081F740917302509174026091750270919E
:1014D0007602411551056105710561F041505109D0
:1014E000610971094093730250937402609375020D
:1014F000709376024091730250917402609175026C
:1015000070917602452B462B472BD9F4209182020D
:10151000309183022130310509F046C010927802E3
:1015200010928102109280020CC080910C018823DD
:1015300041F082E090E090938102809380021092CB
:101540000C011092710280917802CEC08823C9F3F9
:101550008091890290918A02A0918B02B0918C02B5
:10156000181619061A061B060CF07DC0809184021D
:1015700090918502019709F076C08091890290913F
:101580008A02A0918B02B0918C0280937302909397
:101590007402A0937502B093760283E090E090937A
:1015A000810280938002CDCF40918D0250918E02B6
:1015B00060918F0270919002452B462B472BA9F02A
:1015C0001092780280918D0290918E02A0918F02EC
:1015D000B09190028093730290937402A09375026D
:1015E000B093760281E090E0DACF882399F0809181
:1015F0000D0190910E01A0910F01B0911001809307
:10160000730290937402A0937502B093760284E003
:1016100090E0C5CF1092780282E090E0C0CF809138
:10162000730290917402A0917502B09176020097B6
:10163000A105B10559F00197A109B1098093730281
:1016400090937402A0937502B09376028091730216
:1016500090917402A0917502B0917602892B8A2B29
:101660008B2B09F06ECF80910D0190910E01A0910E
:101670000F01B0911001892B8A2B8B2B09F44ECFCF
:1016800081E080937802B3CF40917302509174024D
:1016900060917502709176024115510561057105E1
:1016A00061F04150510961097109409373025093EF
:1016B00074026093750270937602409173025091A8
:1016C00074026091750270917602452B462B472B70
:1016D00009F037CF8111C7CF9FCF80917102882346
:1016E00009F431CF80917202CF911F910F91FF9039
:1016F000EF90DF90CF90089510927C0210927D02BF
:1017000010927E0210927F0210927B021092810250
:101710001092800210927A021092790210929B022B
:1017200010929A021092780210927702109273022D
:101730001092740210927502109276021092720248
:1017400010927102109296021092970210929802D3
:1017500010929902109295021092910210929202A8
:10176000109293021092940288EE93E0A0E0B0E011
:1017700080930D0190930E01A0930F01B09310017F
:1017800010928D0210928E0210928F02109290028F
:101790001092890210928A0210928B0210928C028F
:1017A000109288021092870281E080930C011092BF
:1017B0008602109285021092840210928302109287
:1017C000820290E080E008958091840290918502E9
:1017D000892B19F580910C01882351F080918602A4
:1017E000811106C081E08093720280937102089596
:1017F0002091860230910C0181E090E0332311F0BA
:1018000090E080E030E082239323892B21F0109236
:10181000720281E0EACF10927102089582E090E0B6
:10182000FA01918380838FEF9FEF0895CF93DF9329
:10183000EA01009711F00E949E1E1982188290E022
:1018400080E0DF91CF910895DB01009719F48FEFCD
:101850008C9308952EEF2C930F968F30910508F0FE
:1018600033C0FC01EA5CF34F0C94AD2B620C600CAE
:101870005E0C5C0C5A0C560C580C540C520C500C50
:101880004D0C490C450C4B0C640C80E311968C9369
:10189000089589E2FBCF82E2F9CF11961C92089558
:1018A00083E2F4CF81E2F2CF81E1F0CF87E2EECFA5
:1018B0008AE2ECCF80E1EACF84E2E8CF88E2E6CFAB
:1018C00086E2E4CF81E3E2CF80E2E0CF9093A90209
:1018D0008093A80208958091A70208959091A7028D
:1018E000892B8093A7020895982F90958091A70245
:1018F00089238093A70208958091A602089580917C
:10190000A4029091A50208956115710559F0FB019B
:1019100030E020E070E060E02417350719F0611531
:10192000710511F0CB010895A081B181A817B90705
:1019300009F4BF012F5F3F4F3696EECF8091AA0288
:1019400081111CC062D268D290939D0280939C0248
:101950000E94A0160E94B2169093A1028093A0024A
:101960000E94301B0E94371B90939F0280939E021F
:1019700081E08093AA0290E080E0089584EF9FEFD9
:1019800008958F929F92AF92BF92CF92DF92EF9283
:10199000FF920F931F93CF93DF93CDB7DEB72A97B4
:1019A0000FB6F894DEBF0FBECDBF1A861986188613
:1019B0001F821E821D821C821B821A8219828091C4
:1019C000AA0207EF1FEF882309F49CC08E010D5F68
:1019D0001F4F9E012B5F3F4FAE01495F5F4FBE011E
:1019E000675F7F4F90E080E00E94B01C8C01009701
:1019F00021F00596029708F0DBC029853A8521156C
:101A0000310509F402C1ED80FE804B815C81B70194
:101A1000640F751F8F8198858617970708F4F5C0A6
:101A2000E20EF31ED7019C91903C09F07FC042303A
:101A3000510508F47BC011968C914091A8025091F9
:101A4000A902452B09F49CC0913F08F071C02CE11C
:101A5000290F2D3008F48BC02DE2290F203108F416
:101A600089C0903C21F48150823008F483C088E31F
:101A7000890F8B3008F481C094E2C92E9CE0D92EE6
:101A8000EEE0FCE06D817E81AE014F5F5F4F8985A6
:101A90009A8509955C01C114D104A1F189809A80CD
:101AA0008114910479F18B819C818815990508F442
:101AB00087C010E000E04B815C8170E060E0C7010E
:101AC0000E94D52B01151105E9F449815A816985D8
:101AD0007A858D819E81680F791FC501F601099570
:101AE000E980FA800D811E812F81388549855A85CC
:101AF0006FEF7FEF81E090E00E944C1C8C01892BFE
:101B000009F056C0C8012A960FB6F894DEBF0FBE82
:101B1000CDBFDF91CF911F910F91FF90EF90DF909C
:101B2000CF90BF90AF909F908F90089580E085CF29
:101B300030E020E0220F331FF901E456FD4F019001
:101B4000F081E02D309709F497CF892F90E0099527
:101B5000009709F491CFDC011296ED91FC91139757
:101B60001496CD90DC90309709F08CCF1FC021E007
:101B700030E0E0CF22E030E0DDCF23E030E0DACF2C
:101B8000D12CC12CE6E1FCE09F3F09F07BCFE09136
:101B90009C02F0919D02309721F4C90104EF1FEFE0
:101BA0000CC08FEF90E009950097A9F604EF1FEFA6
:101BB00089859A85009709F4A5CF0E949E1EA2CF21
:101BC0000E94791D8C0189859A850E949E1E70E075
:101BD00060E0C4010E94121D98878F830E94491CF7
:101BE0009E838D836F8178856115710559F0C801D9
:101BF0000E942A209A87898706EF1FEF892B09F018
:101C000058CF59CF08EF1FEF56CF08EF1FEFD0CFB7
:101C10002091AA02222319F020E00C94B71687EF36
:101C20009FEF08958091A8029091A90208950E94C3
:101C30003C1B0E94961AF5D0ECE9F2E088E0DF0147
:101C40001D928A95E9F71092AA0290E080E008952B
:101C50000C94F31821E040E050E0BA010C94B71660
:101C600086E090E0FA019183808390E080E008951F
:101C700047E050E06DE471E047CEDF92EF92FF92D3
:101C80000F931F93CF93DF938A01EC01C60FD71FE9
:101C9000E090AE02F090AF02D9800E94611DD8168C
:101CA000190678F082E090E0F801918380838EEF4E
:101CB0009FEFDF91CF911F910F91FF90EF90DF90F9
:101CC0000895EF2841F482E090E0F8019183808349
:101CD00084EF9FEFEECF89818093AD0290E0019673
:101CE000F8019183808390E080E0E3CFCF93DF938E
:101CF000EA010E94A419882321F00E946E1D0E940F
:101D0000A51982E090E0998388838BEF9FEFDF91A4
:101D1000CF910895CF93DF93EB0186E0FB01119201
:101D20008A95E9F78FEF8883D6DD8983E5DD8A839D
:101D3000E6DD9D838C83DF91CF910895CF93DF9370
:101D4000EA010E94A719811109C082E090E09983FD
:101D5000888385EF9FEFDF91CF91089590E080E039
:101D6000B5DD81E090E09983888390E080E0F3CF57
:101D70000F931F93CF93DF93EA018C01060F171F78
:101D80000E94A71981110BC082E090E0998388839B
:101D900085EF9FEFDF91CF911F910F910895F8018B
:101DA0008181823038F082E090E0998388838EEFE1
:101DB0009FEFF0CF81E090E089DD88E090E09983AB
:101DC000888390E080E0E6CFCF93DF930097D1F453
:101DD000EB01FB01329686E0DF011D928A95E9F75F
:101DE0008FEF888385E089831A820E94611D8B832F
:101DF0000E94601D9D838C8381E08E838F83DF91A1
:101E0000CF910895DF91CF911FCD88E39EE090930D
:101E1000AC028093AB0208958091AB029091AC022A
:101E200008951092AC021092AB0208958091AE0218
:101E30009091AF020895411105C0611571058105AA
:101E4000910561F06093AE027093AF028093B0028F
:101E50009093B1024093B20281E0089580E008952A
:101E6000FF920F931F93CF93DF938A01EC01C60F6C
:101E7000D71FF9800E94611DF816190668F082E0EC
:101E800090E0F801918380838EEF9FEFDF91CF91F7
:101E90001F910F91FF9008956C817D818E819F81AC
:101EA0004B81C9DF811108C082E090E0F801918385
:101EB000808384EF9FEFEACF89818093AD0290E029
:101EC0000196F8019183808390E080E0DFCFCF938B
:101ED000DF93EA01FC01E60FF71F648175818681BB
:101EE00097814381A8DF811109C082E090E0998346
:101EF000888384EF9FEFDF91CF91089581E090E098
:101F00009983888390E080E0F6CFEEEAF2E04081AA
:101F1000518162817381480F511D611D711D408384
:101F20005183628373830895CF93C091AD024C2F88
:101F300050E06091AE027091AF0201960E94CC2BEE
:101F40008C2FE3DF1092AD02CF910895009799F4A2
:101F50008091AE029091AF022FEFFB012083892B7D
:101F600059F02091AD0230E02F5F3F4F2417350725
:101F700019F4CB01D9CF68CC0895009799F48091DA
:101F8000AE029091AF022FEFFB012083892B59F015
:101F90002091AD0230E02F5F3F4F2417350719F431
:101FA000CB01C2CF51CC089523E1AC01249FC001E5
:101FB000259F900D1124E091B702F091B802E80F2F
:101FC000F91F238134812250310981E0223031050B
:101FD00008F080E008950F931F93CF93DF93009153
:101FE000B9021091BA02D0E0C0E080E00C171D07E2
:101FF00049F491E0811190E0892FDF91CF911F91F9
:102000000F9108958111F5CFCE01CEDF2196EECF4D
:10201000A091B702B091B802109729F12091B902AE
:102020003091BA0282179307F0F453E1589F900160
:10203000599F300D1124A20FB31FED91FC91119700
:10204000309789F012968C91681768F48DE0689F3C
:10205000E00DF11D112480819181892B21F081E017
:102060009281491708F080E008959C0143E1429F66
:10207000C001439F900D1124E091B702F091B80286
:10208000E80FF91F8385823091F481E090E065814B
:10209000768140911101509112016417750711F476
:1020A00090E080E0892B19F081E0232B09F080E09B
:1020B0000895FC01A081B1818DE0689FA00DB11D44
:1020C000112413964D915C9185859685489F9001CA
:1020D000499F300D589F300D1124C901019661119F
:1020E00003C0478144FD04960895EF92FF920F9339
:1020F0001F93CF93DF93EA01FC01E60FF71F0281E4
:102100001381E480F5804F2D6E2DC80181DF811190
:102110000DC082E090E0998388838EEF9FEFDF917E
:10212000CF911F910F91FF90EF900895C8013CDF70
:10213000882339F082E090E09983888388EF9FEFCD
:10214000EECF1093180100931701E0921901F0925D
:102150001A0181E090E09983888390E080E0DFCFEE
:10216000CF92DF92EF92FF920F931F93CF93DF9363
:102170007A01EC01C60FD71FC0901701D09018014B
:102180000091190110911A01412F602FC60140DF03
:10219000811110C082E090E0F701918380838AEF83
:1021A0009FEFDF91CF911F910F91FF90EF90DF9004
:1021B000CF900895C601F8DE882341F082E090E0D8
:1021C000F7019183808388EF9FEFEBCF4C815D8196
:1021D0006E817F819A8189818F3F41F082E090E01A
:1021E000F701918380838EEF9FEFDBCFE3E1EC9DDE
:1021F0009001ED9D300D1124E091B702F091B802ED
:10220000E20FF31F0190F081E02D2DE0029FE00D21
:10221000F11D11240190F081E02D27E0129FE00DC7
:10222000F11D1124808391838B81828343835483A6
:10223000658376831F5F10931A0181E090E0F701B8
:102240009183808390E080E0ACCFEF92FF920F9378
:102250001F93CF93DF937A018C01060F171FC09154
:10226000B702D091B802209781F021E030E0F80168
:10227000828193814091B9025091BA0284179507E7
:1022800010F030E020E0232B71F482E090E0F701C1
:10229000918380838EEF9FEFDF91CF911F910F91FC
:1022A000FF90EF90089543E1489F9001499F300DC2
:1022B0001124C20FD31F78DE882341F082E090E022
:1022C000F7019183808388EF9FEFE6CFF8012481A7
:1022D000358120383105C8F687818111D6CF4181FB
:1022E000842F90E08F7E009741F082E090E0F7012C
:1022F0009183808386EF9FEFCFCF4F833E832D83E3
:10230000268128871986223010F421E0288721E0D1
:1023100030E0F70131832083BFCF88E090E0FA01FD
:102320009183808390E080E00895FB018FEF8083AC
:1023300081E181838FEF9FEF9383828380E890E038
:1023400095838483168217820895FB018FEF808323
:1023500091E0918382839383848384E3858381E006
:1023600090E0978386830895DF92EF92FF920F9318
:102370001F93CF93DF93EA01FC01E60FF71F8181E2
:10238000813071F082E090E0998388838FEF9FEF36
:10239000DF91CF911F910F91FF90EF90DF90089503
:1023A00082819381D4802581E680F7800091B702F5
:1023B0001091B8020115110539F482E090E099837B
:1023C00088838CEF9FEFE4CF4091B9025091BA021D
:1023D0008417950738F082E090E0998388838EEF28
:1023E0009FEFD6CF892B39F082E090E099838883E4
:1023F00086EF9FEFCDCF8D2D8D7FB1F72130A1F7E7
:1024000081E0D11006C091E0E916F10431F080E0DE
:1024100004C0E2E0EE16F104D0F3882329F390E043
:1024200080E0C2DD882339F082E090E099838883E0
:1024300088EF9FEFADCFF801D38681E08487F686E1
:10244000E586108A178681E090E09983888390E082
:1024500080E09ECF4CE050E067E771E055CA8F9274
:102460009F92BF92CF92DF92EF92FF920F931F93B2
:10247000CF93DF93EA01FC01E60FF71F828193817E
:102480000481B580E091B702F091B802309791F4E1
:1024900082E090E0998388838CEF9FEFDF91CF916A
:1024A0001F910F91FF90EF90DF90CF90BF909F9082
:1024B0008F9008952091B9023091BA028217930744
:1024C00038F082E090E0998388838EEF9FEFE6CF2B
:1024D00023E1289F6001299FD00C1124EC0DFD1DE4
:1024E000E080F180E114F10499F28281081748F745
:1024F0008DE0089F80011124E00EF11EF70180811C
:102500009181892B29F6BB20E1F2F7E0BF9E4001C3
:102510001124C4010E94651EF70191838083E0911C
:10252000B702F091B802EC0DFD1D0190F081E02D95
:10253000E00FF11F80819181009739F482E090E0F3
:10254000998388838DEF9FEFA9CFA40170E060E0AD
:102550000E94D52B8091B7029091B802C80ED91E67
:10256000F60180819181080F191FF801B28281E084
:1025700090E09983888390E080E090CFAF92BF9203
:10258000CF92DF92FF920F931F93CF93DF93EA01D5
:10259000FC01E60FF71F82819381F4800091B7025E
:1025A0001091B8020115110581F482E090E0998341
:1025B00088838CEF9FEFDF91CF911F910F91FF9058
:1025C000DF90CF90BF90AF9008952091B9023091E5
:1025D000BA028217930738F082E090E099838883EB
:1025E0008EEF9FEFE8CF2FEF2F0D2C3FA8F723E1C1
:1025F000289F6001299FD00C11240C0D1D1DF8018E
:1026000080819181892B89F6FDE0FF9E5001112484
:10261000C5010E94651EF80191838083E091B70295
:10262000F091B802EC0DFD1D80819181009739F485
:1026300082E090E0998388838DEF9FEFBCCFA50166
:1026400070E060E00E94D52BE091B702F091B802F3
:10265000EC0DFD1DF28281E090E09983888390E08B
:1026600080E0A9CFCF92DF92EF92FF920F931F935A
:10267000CF93DF93860F971FFC0102811381809116
:10268000B7029091B802892B81F082E090E0FA01C4
:10269000918380838CEF9FEFDF91CF911F910F91FA
:1026A000FF90EF90DF90CF900895C801B0E0A0E0D8
:1026B0000197A109B1098F3F9F4FA105B10540F0D6
:1026C00082E090E0FA01918380838EEF9FEFE4CF68
:1026D0007A0183E1809F6001819FD00C1124C601A3
:1026E0000E94651EEC01009741F482E090E0F70142
:1026F000918380838DEF9FEFCFCFA60170E060E0E4
:102700000E94D52BD093B802C093B7021093BA029F
:102710000093B90290E080E02FEF3FEF41E061E0ED
:1027200070E08017910741F481E090E0F701918318
:10273000808390E080E0B0CF3A8B298B1B864C875A
:102740007E876D87188A1F8601966396EACFEF927F
:10275000FF921F93CF93DF93EC0110E0F12CE12C5B
:102760006A811617B0F083E0689FB0011124AE01B2
:102770004F5E5F4FC7010E94CA1E009721F02FEFE6
:102780003FEF3A8B298BDF91CF911F91FF90EF9014
:102790000895612FCE018DDC61E070E00E94121D72
:1027A000E816F90608F47C011F5FDACFF89420914F
:1027B000B5023091B60281E02115310509F080E0C3
:1027C000232B09F0789408952F923F924F925F92B5
:1027D0006F927F928F929F92AF92BF92CF92DF9231
:1027E000EF92FF920F931F93CF93DF933C01660EFE
:1027F000771EF301828193814C01B12CA12CC091F1
:10280000B702D091B802209769F021E030E06091E2
:10281000B9027091BA028617970710F030E020E0F5
:10282000232BD1F482E090E0FA01918380838EEF34
:102830009FEFDF91CF911F910F91FF90EF90DF906D
:10284000CF90BF90AF909F908F907F906F905F9050
:102850004F903F902F90089580921B0190921C0101
:10286000A0921D01B0921E0163E1689F9001699FD3
:10287000300D1124C20FD31FF3018181833040F04A
:1028800082E090E0FA019183808386EF9FEFD1CFC1
:102890002A012B813C81232BF1F4288139819F81EE
:1028A00091FF2EC0232B09F46FC02091BC029A81A6
:1028B000422F490F5527551FBA0141E050E06138BA
:1028C000710514F050E040E0452B09F45DC02A8703
:1028D000920F9093BC028150823008F481C066DF71
:1028E000882309F4D8C0F3018181813009F48DC0B7
:1028F00008F47BC0823009F4C6C090E080E0ADC02F
:10290000232B09F441C02091BB029A81E22FE90FE9
:10291000FF27FF1F41E050E0ED3FF10514F050E0CC
:1029200040E0452B89F12A87920F9093BB02D3CFC9
:10293000A081B181A20FB31F11966C91060F111DDA
:102940000196295F3F4F8417950794F38D859E85E7
:10295000089F1001099F300C189F300C1124C114DE
:10296000D104D1F48F8184FF17C00E94601DF5E06F
:102970002F0E311C21E08215930508F420E0A701F9
:10298000435F5F4F21110EC082E090E0F20191831E
:10299000808387EF9FEF4DCF0E94601D2FEF221A9B
:1029A000320AE8CF88819981E80EF91EF701148375
:1029B0000383FFEFCF1ADF0A7A018A818C151D0489
:1029C00009F00CF48CCFE881F981EE0DFF1D4281F6
:1029D00050E030E020E010E000E090E080E0B3CF95
:1029E000F12CE12CD12CC12CE8CF81E090E09C832C
:1029F0008B83F1DA882309F480CF81E090E00E9494
:102A0000660C80E40E94740C78CF89899A890196BB
:102A100061F083E090E09C838B8382E090E00E94F1
:102A2000660C80E40E946E0C68CF8D819E8120919F
:102A300011013091120182179307D1F460911501B1
:102A400070911601AE014F5E5F4F8091130190911E
:102A500014010E94E91F0097E1F2789422E030E02F
:102A6000F20131832083892B99F08DEF9FEFE1CE26
:102A700089288A288B2869F6892B59F6CE0167DECA
:102A8000188A1F86E8CF82E090E09C838B8335CF45
:102A900090E080E0CECE82E090E0F20191838083EE
:102AA00085EF9FEFC6CE8F929F92AF92BF92CF924B
:102AB000DF92EF92FF920F931F93CF93DF93EA0180
:102AC0008C01060F171FF8018181833098F082E096
:102AD00090E09983888386EF9FEFDF91CF911F91DC
:102AE0000F91FF90EF90DF90CF90BF90AF909F90AD
:102AF0008F9008958091B7029091B802892B61F070
:102B000081E090E02091B9023091BA02232B11F4B8
:102B100090E080E0892B39F482E090E0998388830B
:102B20008EEF9FEFDACF42DE882309F4DFC0F80191
:102B30008181813009F495C0E8F0823099F42091C8
:102B4000B9023091BA02E091B702F091B80290E078
:102B500080E041E050E02817390709F0BDC03BDABA
:102B6000811117C0789481E090E09983888390E088
:102B700080E0B3CF2091B9023091BA02E091B70260
:102B8000F091B80290E080E041E050E0281739076A
:102B900041F481E090E00E94660C80E40E94740C95
:102BA000E1CF63817481672B11F0548343830196D5
:102BB0007396ECCFE091B702F091B802E00FF11FED
:102BC0002381348122303105D9F4218932892F3F84
:102BD0003F4FB1F42581368140911101509112018E
:102BE0002417350761F5AF014F5E5F4F6091150106
:102BF0007091160180911301909114010E94E91FB8
:102C0000EFEFCE1ADE0AEE0AFE0A0D5E1F4F40916C
:102C1000B9025091BA0270E060E0C416D506E6062B
:102C2000F7063CF5009731F27894892B09F49BCF95
:102C300082E090E0998388838DEF9FEF4ECFC1149F
:102C4000D104E104F104E1F6232BD1F6CF017FDDBD
:102C5000E091B702F091B802E00FF11F108A1786D9
:102C6000CFCF10E000E090E080E0C12CD12C7601C5
:102C7000CECF0097C9F610E000E0812C912C5401D2
:102C800083E0E82EF12C1AC0E091B702F091B8026F
:102C9000E00FF11F83819481029749F4F482E3826B
:102CA00082E090E00E94660C80E40E946E0CFFEFD0
:102CB0008F1A9F0AAF0ABF0A0D5E1F4F8091B9029B
:102CC0009091BA02B0E0A0E088169906AA06BB0669
:102CD000DCF290E080E0A8CF6381748162307105FE
:102CE00011F4548343830196739635CF82E090E0CC
:102CF0009983888385EF9FEFF0CE0097B9F48FEF2B
:102D0000FB01808320911B0130911C0143E1429F14
:102D1000C001439F900D1124E091B702F091B802D9
:102D2000E80FF91F8285FB01818308950C94240C20
:102D300088E090E0FA019183808390E080E008953C
:102D40001092B6021092B502E7EBF2E086E0DF01E6
:102D50001D928A95E9F78AE292E19093B4028093FA
:102D6000B30208958091B3029091B40208952F9216
:102D70003F924F925F926F927F928F929F92AF920B
:102D8000BF92CF92DF92EF92FF920F931F93CF9358
:102D9000DF93CDB7DEB72F970FB6F894DEBF0FBE27
:102DA000CDBFF894E091B502F091B6023196F09360
:102DB000B602E093B50278944090B7025090B80202
:102DC0004114510409F40CC2E091B902F091BA0225
:102DD000EF2B09F405C22D8749875A876B877C87BB
:102DE00098878F831201B12CA12C10E000E0809114
:102DF000B9029091BA02A816B90618F40115110586
:102E000029F1F8948091B5029091B60201979093C0
:102E1000B6028093B5027894C8012F960FB6F89445
:102E2000DEBF0FBECDBFDF91CF911F910F91FF90FD
:102E3000EF90DF90CF90BF90AF909F908F907F905A
:102E40006F905F904F903F902F9008957101E4181C
:102E5000F508D10117968C91179781FD54C01396F0
:102E60008D919C911497039709F04DC015968D9103
:102E70009C91EF81F8858E179F0709F044C0B5013A
:102E800090E080E07ED48A832091B7023091B8022E
:102E90003D832C833D85332309F44CC04C815D81F7
:102EA000452B09F49AC18091B9029091BA02A816F3
:102EB000B90608F092C1C501D8D88823E9F06C8121
:102EC0007D816E0D7F1D7D836C83DB011F968D914F
:102ED0009C91892B89F0D12CC12CF12CE12CAC8157
:102EE000BD8112968C9112978E151F0409F094F4EF
:102EF00050961C921E921F972A81222321F0B50121
:102F000090E080E040D43FEFA31AB30A43E1240EDF
:102F1000311C6DCFAC81BD81ED91FC91EC0DFD1D9F
:102F2000858196810BD7BFEFEB1AFB0AEDE0CE0E41
:102F3000D11CD5CFEC81FD81309709F44EC1809131
:102F4000B9029091BA02A816B90608F046C1EE0D72
:102F5000FF1DFF87EE87C50188D88B83882339F151
:102F6000AE85BF851F968D919C915097019621E06B
:102F70001D964D915C918417950709F020E02E83F2
:102F80001982712C10E000E0AE85BF8512968C91FD
:102F9000781608F45DC0EE85FF85878590890196D7
:102FA000658576850E94772B908B8787A5CFB1E0CA
:102FB000BE83E6CF992493946BC087D6F60196839F
:102FC000858382C0D601ED90FC90B7E06B9EE00C4B
:102FD000F11C1124F7016381748180818F3F61F1BD
:102FE00021E030E002C0220F331F8A95E2F7C901C9
:102FF000092E000CAA0BBB0BFB01408151816281A1
:10300000738184239523A623B72321E0892B8A2B60
:103010008B2B09F420E0D4012C93D70111968C91CD
:10302000F60123853485820F932F911D880E991EFA
:103030001486138663949BC0418150E0C4010E94B2
:10304000CC2BEBCF998206EF1FEFC5C01982C3C00E
:10305000F981F111A0CFEDE07E9E70011124AE85C3
:10306000BF85CD90DC90CE0CDF1C13D49D838C8368
:10307000BB81BB2309F49ECF81E0EE85FF852785C8
:103080003089232B09F080E0982E882309F458C05A
:10309000672D8E859F850DD8D60118969C938E93AB
:1030A000179761E070E0BED4EE85FF8521893289F3
:1030B0002F3F320709F481CFBC01C901CBD7D6011C
:1030C00016969C938E931597D60115968D919C918B
:1030D0001697009709F4B6CFEC81FD818E0F9F1FE4
:1030E0001A969C938E931997AE85BF85ED91FC91AE
:1030F0001197EE0EFF1EF701218532851486138687
:103100001A968C91870DD9018D93711016C0EE859A
:10311000FF85878184FF11C049855A856B857C8531
:10312000F9014183528363837483F7018385948516
:103130000496A80FB91F14861386F701B287A187DA
:10314000D60115968D919C911697892B09F443C051
:10315000EE85FF85258136818091110190911201C4
:103160002817390779F019968D909C90612CD6011B
:1031700012968C911297681608F424CF1A969C9296
:103180008E921997BE81BB2309F460CF61E070E095
:10319000F6018781908546D4D6011796ED90FC9074
:1031A000189715964D915C91E1E0F0E0BA81BB2350
:1031B00011F0F0E0E0E00C811D819C01B501882751
:1031C00099278E1B9F0B68D38C01892B21F0F60168
:1031D00085819681B3D57394D7CE0FEF1FEF8CCE38
:1031E00010E000E00ECE2F923F924F925F926F92CE
:1031F0007F928F929F92AF92BF92CF92DF92EF9287
:10320000FF920F931F93CF93DF938091B70290911A
:10321000B80210E000E0892BA9F0C8DA0AEF1FEF2E
:10322000882381F02090B9023090BA02C091B70291
:10323000D091B802D12CC12C10E000E02C143D0438
:10324000A9F47894C801DF91CF911F910F91FF905D
:10325000EF90DF90CF90BF90AF909F908F907F9036
:103260006F905F904F903F902F900895C6010E94FD
:103270003510882309F18B819C810397E9F48F85B0
:103280009889892BC9F0B60190E080E07AD221E0DC
:1032900030E0882311F030E020E044245524421A25
:1032A000530AB12CA12C912C812C8A8188151904E8
:1032B00009F038F4188A1F864FEFC41AD40A6396AF
:1032C000BDCFE881F981EA0DFB1D85819681892BAF
:1032D000A1F161E070E087819085A4D33C01D9D24F
:1032E0008C01E881F981EA0DFB1D8185928525819C
:1032F0003681200F311FAC01421B530B9A014781CD
:103300005085421B530B70E060E00E94D52BE88192
:10331000F981EA0DFB1DE780F08445815681930118
:10332000B601C201B9D28C01892B39F0E881F9814B
:10333000EA0DFB1D8581968101D55FEF851A950AFF
:103340008DE0A80EB11CB1CF31CA789408952F92A8
:103350003F924F925F926F927F929F92AF92BF92F5
:10336000CF92DF92EF92FF920F931F93CF93DF9351
:1033700000D000D000D0CDB7DEB70091B7021091D9
:10338000B802992493940115110509F43EC0A09048
:10339000B902B090BA020ADA982E8823B1F11092DD
:1033A000B8021092B7021092BA021092B9021092AB
:1033B000BB021092BC028FEF9FEFDC0180931B01D8
:1033C00090931C01A0931D01B0931E0178947AD3B1
:1033D0001E830D83C12CD12C7601C501B0E0A0E085
:1033E00089839A83AB83BC8322242A94322C8981DB
:1033F0009A81AB81BC81C816D906EA06FB06F4F0B7
:10340000C8019CD480E40E94740C892D26960FB6C6
:10341000F894DEBF0FBECDBFDF91CF911F910F910A
:10342000FF90EF90DF90CF90BF90AF909F907F90F4
:103430006F905F904F903F902F900895AD81BE8127
:1034400015968D919C911697209111013091120142
:1034500082179307D1F451968D919C91E9D5ED8116
:10346000FE8180819181B12CA12C412C512C320103
:10347000892B89F5BFEFCB1ADB0AEB0AFB0AED813A
:10348000FE817396FE83ED83B2CFC114D104E104B3
:10349000F10429F7892B19F7ED81FE818189928941
:1034A0008F3F980709F024D5AD81BE8152963C929A
:1034B0002E925197D4CF8A0D9B1DDC018D919C914A
:1034C000009709F03BD4BFEF4B1A5B0A6B0A7B0AEB
:1034D000EDE0AE0EB11CAD81BE818D919C91119736
:1034E00012964C9150E070E060E044165506660676
:1034F00077060CF323D4BECFCF93DF93EA0127DF07
:10350000811109C082E090E09983888385EF9FEF65
:10351000DF91CF91089581E090E00E94660C81E0F8
:1035200090E09983888390E080E0F2CF10DF1092E2
:10353000B4021092B302089542E050E06FEB71E0E4
:103540000C94840CFF920F931F93CF93DF938A0107
:10355000EC01C60FD71FF980B4D20897F8161906E8
:1035600071F068F082E090E0F801918380838EEF43
:103570009FEFDF91CF911F910F91FF9008956C8184
:103580007D818E819F814B810E941B0F811108C01C
:1035900082E090E0F8019183808384EF9FEFE9CF90
:1035A000F9800E94160F4F2D50E0BE01685F7F4FDB
:1035B0000E94CC2B89810E94850F81E090E0F80168
:1035C0009183808390E080E0D4CFDF92EF92FF92EE
:1035D0000F931F93CF93DF938A01EC01C60FD71F80
:1035E0000E94160F7C01D9806CD2DD2059F0029721
:1035F00021E030E0D816190619F010F030E020E094
:10360000232B79F482E090E0F801918380838EEFA0
:103610009FEFDF91CF911F910F91FF90EF90DF907F
:103620000895EF2841F482E090E0F80191838083CF
:1036300084EF9FEFEECFF9800E94160F4F2D50E0E0
:10364000BE016E5F7F4F0E94CC2B89810E94850F47
:1036500081E090E0F8019183808390E080E0D9CF11
:103660008CE99AE19093BE028093BD020895809107
:10367000BD029091BE0208950895FC01118210824E
:10368000938382830895DB011D921C92DC011296C4
:10369000ED91FC9113977183608313967C936E93E5
:1036A00012970895FC0180819181DB018D939C9399
:1036B000A081B181109741F08D919C91918380837D
:1036C000892B11F4F383E2830895FC0180819181B9
:1036D000DB018D939C93892B11F473836283718337
:1036E00060830895FC011182108293838283089580
:1036F000CF93DF9300D0CDB7DEB71A821982F8944A
:10370000BE016F5F7F4F84EC92E0CCDF89819A81AC
:10371000009709F013D389819A81892B89F7BE011B
:103720006F5F7F4F88EC92E0BDDF89819A810097BF
:1037300009F004D389819A81892B89F778940F90B5
:103740000F90DF91CF910895CF93DF9300D0CDB745
:10375000DEB71A821982F894BE016F5F7F4F80EC4A
:1037600092E0A0DF89819A81009709F0E7D28981F0
:103770009A81892B89F778940F900F90DF91CF91E0
:10378000089581E0089590E080E00895EF92FF921F
:103790000F931F93CF93DF9300D0CDB7DEB71A827C
:1037A00019828091BF0207EF1FEF8823A1F1F894DF
:1037B000BE016F5F7F4F88EC92E074DF789489815F
:1037C0009A81EE24E394F12C892B51F4F894BE01F4
:1037D0006F5F7F4F84EC92E065DF7894F12CE12CF1
:1037E00089819A810EEF1FEF0097A9F0FC014281B9
:1037F000538164E070E070D68C01892B61F0F894FD
:1038000069817A81C701880F991F880F991F8C538E
:103810009D4F5BDF7894C8010F900F90DF91CF919F
:103820001F910F91FF90EF9008950F931F93CF93E7
:10383000DF9300D000D0CDB7DEB71C821B821A8286
:1038400019828091BF0207EF1FEF8823C1F0AE01FC
:103850004D5F5F4F64E070E0CE010196B0D68C0101
:10386000892B69F4E981FA818B819C81938382831E
:10387000F89469817A8180EC92E005DF7894C80140
:103880000F900F900F900F90DF91CF911F910F919C
:103890000895B5D7049608958F929F92AF92BF92E4
:1038A000CF92DF92EF92FF920F931F93CF93DF930C
:1038B00000D0CDB7DEB71A821982BC016F5F7F4F8F
:1038C0006330710598F0AA24AA94BA2CC5010F9010
:1038D0000F90DF91CF911F910F91FF90EF90DF90AC
:1038E000CF90BF90AF909F908F9008954115510554
:1038F00051F3480159018A016C01CBDF8815990504
:1039000011F7E114F104F9F28E0D9F1DA816B90606
:10391000D0F28091BF028823F1F0F894B501645091
:1039200071099701AE014F5F5F4FC8010496DCD665
:103930005C01892B71F489819A81F80193838283D8
:10394000C601880F991F880F991FB8018C539D4F8E
:103950009ADE7894BBCF87EFA82EBB24BA94B6CF5B
:10396000AF92BF92CF92DF92EF92FF920F931F938D
:10397000CF93DF9300D0CDB7DEB71A821982892B9F
:1039800009F047C06115710509F443C0411551059F
:1039900009F43FC02115310509F43BC0011511059B
:1039A000C1F18091BF028823B9F179016A015B01FD
:1039B000F894BE016F5F7F4F80EC92E073DE7894E5
:1039C00089819A81009759F1DC0112966D917C9161
:1039D000A8010496A2D68C01E981FA81D501ED9364
:1039E000FC93828193810496F6019183808351DF59
:1039F000D7018D939C93C8010F900F90DF91CF91C9
:103A00001F910F91FF90EF90DF90CF90BF90AF90FC
:103A100008950FEF1FEFEFCF07EF1FEFECCF0EEF83
:103A20001FEFE9CFCF93DF93EC01672B71F4F0D652
:103A30008C179D0760F0E3D62496C80FD91FE2D6F5
:103A40008C0F9D1FDF91CF910895DFD6F1CF90E0CD
:103A500080E0F8CF0F931F93CF93DF932091BF02A5
:103A600021112BC08B01EC0184EC92E006DE88EC86
:103A700092E003DE80EC92E000DE97D00097C1F484
:103A8000C7D670E060E0CEDF4FE151E062E070E069
:103A900081D1009769F480911F0190912001CAD6CD
:103AA000B801CE01FFD4009719F421E02093BF02A2
:103AB000DF91CF911F910F91089584EF9FEFF8CF81
:103AC000A4C6A6C6CF93DF93A6D6EC01892B11F42A
:103AD0000FDE3ADECE01DF91CF910895CF93DF93D1
:103AE0009AD6EC01892B09F403DECE01DF91CF9148
:103AF000089580911F01909120010895CF93DF9345
:103B00008091BF02D0E0C0E08823D1F098D6EC01CC
:103B1000892BB1F4EDDD18DE80911F019091200119
:103B2000E7D1E8D2EC01892B59F484EC92E0DADD9C
:103B300088EC92E0D7DD80EC92E0D4DD1092BF02F9
:103B4000CE01DF91CF910895EF92FF920F931F93D3
:103B5000CF93DF93EC017A018B010F5F1F4F0E9D16
:103B6000A0010F9D500D1E9D500D112470E060E0CE
:103B70000E94D52B90E080E0F0E0E0E02FEFE81627
:103B8000F90639F4DF91CF911F910F91FF90EF90DB
:103B900008951A8219822883309711F0D283C18345
:103BA0000196FE01C00FD11FEACFCF92DF92EF92B4
:103BB000FF920F931F93CF93DF930DED13E00C7FD4
:103BC00043E050E061E271E087E291E018D481E2E5
:103BD000E82E81E0F82E97E2C92E91E0D92ECCE4B0
:103BE000D4E0D7014D915D917D01F6016191719114
:103BF0006F01198308835D834C835B834A837F83D2
:103C00006E839B012F5F3F4F249FC001259F900D26
:103C1000349F900D1124998788870115110511F0A3
:103C2000C80192DF88859985080F191F2A96F7E247
:103C3000EF16F1E0FF06A9F6EEECF2E08CE091E081
:103C4000DF019C011D9221503040E1F71092CD021E
:103C50001092CC0210926B0410926A0410926F04BE
:103C600010926E0410926D0410926C041092710404
:103C700010927004109273041092720410927504E2
:103C800010927404109279041092780410927704C0
:103C90001092760410927B0410927A0410927D04A4
:103CA00010927C04109249041092480410924B0424
:103CB00010924A0490E080E0DF91CF911F910F9124
:103CC000FF90EF90DF90CF9008950097F1F0F89477
:103CD000A7E2B1E0ECE4F4E030E020E04D915D914A
:103CE00048175907A8F0428153814115510581F0C9
:103CF0008AE0829FF001839FF00D1124E45BFB4F6B
:103D000080819181009759F4789490E080E0089543
:103D10002F5F3F4F3A962330310501F7F5CFDC0195
:103D200011966D917C917183608341505109538349
:103D30004283FC012193CF0178940895009749F1C3
:103D4000DC018E91853041F4E0914A04F0914B04FE
:103D50003097F9F0CD0109948530D8F4282F30E060
:103D6000F8948FEF8C938AE0829FF001839FF00D8F
:103D70001124E45BFB4F8081918112969C938E937A
:103D80001197B183A083828193810196938382836B
:103D900078940895CF92DF92EF92FF920F931F9342
:103DA000CF93DF939C0181ED92E08C7F411551050B
:103DB00009F49BC02115310509F497C061157105FF
:103DC00009F493C07A01AB01B9016D5F7F4F6C7F3D
:103DD0009B012F5F3F4F249F8001259F100D349F33
:103DE000100D1124F89420916A0430916B04232B58
:103DF00059F420917204309173042115310569F151
:103E00002017310708F058C02091740430917504D0
:103E1000232B91F42091720430917304820F931F2D
:103E200020917C0430917D042115310509F441C0B5
:103E30002017310708F056C07894CFEFDFEF86EFF8
:103E40009FEFF701D183C083DF91CF911F910F9135
:103E5000FF90EF90DF90CF900895C3E0D0E0C09046
:103E6000CC02D090CD0229E031E02C193D09201779
:103E7000310710F32AE02C9FF0012D9FF00D112443
:103E8000E45BFB4F91838083558344835383428358
:103E90007783668311870087009709F055DE0C0D44
:103EA0001D1D1093CD020093CC02789490E080E029
:103EB000C8CFC4E0D0E0D3CFC3E0D0E02AE02C9F4D
:103EC000F0012D9FF00D1124E45BFB4F9183808363
:103ED000558344835383428377836683009729F312
:103EE00033DEE3CFC4E0D0E0E9CF8FEF9FEFACCF7C
:103EF0009C010397029708F069C0F89484E09AE067
:103F0000482F50E0241735070CF44DC091E08AE0AB
:103F1000829FF001839FF00D1124E45BFB4F11821F
:103F200010821582148213821282178216829923BC
:103F3000B1F180916A0490916B04892BA9F42091CE
:103F40007204309173042115310571F08091CC0217
:103F50009091CD02821B930B9093CD028093CC0263
:103F600010927304109272048091740490917504FD
:103F7000892BA9F420917C0430917D042115310511
:103F800071F08091CC029091CD02821B930B9093A3
:103F9000CD028093CC0210927D0410927C04789420
:103FA00090E080E00895949FF001959FF00D11241A
:103FB000E45BFB4F40815181452B31F440855185B5
:103FC000452B11F481509CCF90E0A1CF8FEF9FEF54
:103FD00008954115510549F1009739F161157105B1
:103FE00021F1F8942091480430914904232BB9F42D
:103FF00020914A0430914B04232B89F49093490477
:104000008093480470934B0460934A04789425E0AD
:1040100030E090E080E0FA013183208308957894C5
:104020002FEF3FEF86EF9FEFF6CF8FEF9FEF0895D3
:10403000059769F4F894109249041092480410927C
:104040004B0410924A04789490E080E008958FEF3A
:104050009FEF08956115710519F4F0E0E0E011C0DB
:104060008530910581F4E0914804F091490430973E
:10407000A1F3CB0101960995009779F3FC0185E046
:104080008193CF0108959C012350310922303105DD
:1040900020F72AE0289FD001299FB00D1124A45BAE
:1040A000BB4F2D913C911197232BB9F216962D9170
:1040B0003C9117972617370780F2F89412962D91A6
:1040C0003C9113972115310529F0ED91FC91119741
:1040D000309711F47894C1CF4181528111965C934D
:1040E0004E932150310913963C932E93129781934E
:1040F0007894C7CFEAEDF3E08EE6DF011D928A9552
:10410000E9F7EEECF2E08CE091E0DF019C011D921A
:1041100021503040E1F71092CD021092CC02ECE435
:10412000F4E082E3DF011D928A95E9F7E8E4F4E028
:1041300084E0DF011D928A95E9F790E080E0089520
:10414000CF93DF93C0912D01D0912E01CF3FDC079B
:1041500059F404D490932E0180932D0197FF09C048
:10416000D0932E01C0932D0184EF9FEFDF91CF916B
:10417000089590E080E0FACF8230910528F4809392
:104180007E0490E080E008958FEF9FEF08954F92B6
:104190005F926F927F92AF92BF92CF92DF92EF9237
:1041A000FF920F931F93CF93DF9300D0CDB7DEB76D
:1041B0001A821982009709F478C06115710509F413
:1041C00074C020912D0130912E0107EF1FEF2F3F7A
:1041D0003F4F09F444C06B015C01412C512C32016A
:1041E000F12CE12C10E000E09E012F5F3F4FA60173
:1041F0004E195F09B5016E0D7F1D80912D019091C3
:104200002E010BD4892B09F04AC089819A8100972D
:1042100041F4E114F10429F420917E04222309F4ED
:1042200041C0E80EF91EEC14FD04C8F480E84816FD
:1042300084E858068EE16806710418F560E070E0C5
:10424000CB0133D72AE0420E511C611C711C0A3F7E
:104250004FEF140721F0043F8FEF1807A1F4C801B6
:104260000F900F90DF91CF911F910F91FF90EF90E2
:10427000DF90CF90BF90AF907F906F905F904F9006
:10428000089501EF1FEF81E090E0013F2FEF12074B
:1042900011F090E080E0892B09F4A6CFE0CF04EF85
:1042A0001FEFDDCF0AEF1FEFDACF0FEF1FEFD7CFF2
:1042B0004F925F926F927F92AF92BF92CF92DF92B6
:1042C000EF92FF920F931F93CF93DF9300D0CDB760
:1042D000DEB71A821982009709F478C0611571055A
:1042E00009F474C020912D0130912E0107EF1FEFCA
:1042F0002F3F3F4F09F444C06B015C01412C512C0E
:104300003201F12CE12C10E000E09E012F5F3F4FC5
:10431000A6014E195F09B5016E0D7F1D80912D011B
:1043200090912E0130D3892B09F04AC089819A815E
:10433000009741F4E114F10429F420917E04222332
:1043400009F441C0E80EF91EEC14FD04C8F480E441
:10435000481682E458068FE06806710418F560E09C
:1043600070E0CB01A2D62AE0420E511C611C711CE8
:104370000E3F4FEF140721F0043F8FEF1807A1F411
:10438000C8010F900F90DF91CF911F910F91FF9077
:10439000EF90DF90CF90BF90AF907F906F905F9045
:1043A0004F90089502EF1FEF81E090E0023F2FEF62
:1043B000120711F090E080E0892B09F4A6CFE0CF3E
:1043C00004EF1FEFDDCF0EEF1FEFDACF0FEF1FEF80
:1043D000D7CF80912D0190912E018F3F980749F002
:1043E000B5D2892B49F48FEF9FEF90932E018093E4
:1043F0002D0190E080E0089584EF9FEF0895CF9223
:10440000DF92EF92FF920F931F93CF93DF9321E000
:104410004115510509F020E04150510921112CC0EE
:10442000DC01FB01D12CC12C21E022C03FEFC31ADB
:10443000D30A7D010D911D91E701EA80FB80E01612
:10444000F106A8F420813181E280F380F182E082DC
:1044500033832283ED90FC9011979D012250310906
:10446000E901F982E88211961C930E9320E03296BE
:10447000C416D506D8F2D2CFDF91CF911F910F91FC
:10448000FF90EF90DF90CF900895FC01680F791FA7
:1044900090E080E0E617F70709F408952191820F74
:1044A000911DF8CF20917F04211113C049DE0097A0
:1044B00091F4109285041092840410928304109257
:1044C0008204109281041092800421E020937F04E2
:1044D000089584EF9FEF0895AF92BF92CF92DF923D
:1044E000EF92FF920F931F93CF93DF93009709F4FE
:1044F00060C04630510508F45CC020917F04C7EFCE
:10450000DFEF222309F449C08C01060F171FF801C1
:10451000C080D180C114D10409F44EC096012A5F35
:104520003F4F4217530708F447C07C018091840431
:104530009091850493838283B6016C5F7F4F58010D
:10454000A60EB71EC801A1DFF5019183808364E048
:1045500070E0C8011CDEEC01892BF9F481E090E0E9
:104560000BDEB601C801049612DEEC01892B91F432
:1045700062E070E0C5010BDEEC01892B59F4C70144
:10458000DDDB8091840490918504019690938504ED
:104590008093840490E080E0EFDDCE01DF91CF9145
:1045A0001F910F91FF90EF90DF90CF90BF90AF9051
:1045B0000895CFEFDFEFF1CFC9EFDFEFEECF6F92CE
:1045C0007F928F929F92AF92BF92CF92DF92EF92A3
:1045D000FF920F931F93CF93DF9300D000D0CDB7FE
:1045E000DEB7009709F47AC04115510509F476C089
:1045F00020917F0407EF1FEF222309F44DC03A01F9
:104600007B015C0164E070E0CE01019651DE8C011B
:10461000892B09F041C009811A810115110509F49E
:104620005AC0480186E0880E911CB701680D791DBB
:1046300080912F01909130010DDD6C01009709F4FC
:1046400050C0A70170E060E00E94D52B89819A815B
:10465000AB81BC81EC0CFD1CF70181939193A1937C
:10466000B1937F0181E090E087DDB801C70120DED2
:10467000892B31F562E070E0C701800F911F18DED1
:104680008C01892BE9F490E080E076DDF501D182A0
:10469000C082F30191828082C8010F900F900F9029
:1046A0000F90DF91CF911F910F91FF90EF90DF90CE
:1046B000CF90BF90AF909F908F907F906F90089514
:1046C00090E080E059DDF50111821082F301118242
:1046D0001082C60133DB09EF1FEFDECF0FEF1FEFB4
:1046E000DBCF06EF1FEFD8CF0097A1F041155105A2
:1046F00089F02115310571F0F90136966E177F07A3
:1047000048F0DC012D933C93DA01ED93FC9390E0AB
:1047100080E008958FEF9FEF0895AF92BF92CF9200
:10472000DF92EF92FF920F931F93CF93DF93009747
:1047300009F45FC04115510509F45BC0653071058E
:1047400008F457C020917F04C7EFDFEF222391F1D7
:10475000DC01CD90DC9011971296ED91FC919601C1
:104760002A5F3F4FC9EFDFEF2617370719F5C091D2
:104770008004D0918104209749F521E030E0309306
:104780008104209380047A018C01F0938304E093E8
:1047900082045601B4E0AB0EB11CB50176DE0A0D01
:1047A0001B1DF801208131818217930729F5D7015C
:1047B000CD92DC92CE01DF91CF911F910F91FF90AE
:1047C000EF90DF90CF90BF90AF900895209182043A
:1047D000309183042F5F3F4FCCEFDFEFE217F307F9
:1047E00090F2CBEFDFEF2E173F0768F2D0E0C0E08A
:1047F000CACFCFEFDFEFDECFC3EFDFEFDBCF84E059
:1048000090E0089582E090E008958CEF9FEF089586
:1048100080E290E008951092850410928404109232
:10482000830410928204109281041092800490E01C
:1048300080E008959093300180932F010895809136
:104840007F04882391F0C5DD009789F410928504D8
:1048500010928404109283041092820410928104B6
:104860001092800410927F04089590E080E00895F3
:10487000009749F06115710531F0FC011182108239
:10488000FB01118210820895F3CF26E030E040E86A
:1048900055E260E070E090E080E000C0892B19F400
:1048A00083E994E012C608951F920F920FB60F92FB
:1048B00011242F933F934F935F936F937F938F9325
:1048C0009F93AF93BF93EF93FF938FE89DEF9093E8
:1048D000850080938400B4D0FF91EF91BF91AF9198
:1048E0009F918F917F916F915F914F913F912F9108
:1048F0000F900FBE0F901F9018958FE89DEF90932B
:10490000850080938400AFE6B0E08C918E7F8C931D
:10491000E0E8F0E080818C7F8083E1E8F0E0808156
:10492000877E808380818460808380818C7F808388
:104930008C9181608C930895EFE6F0E08081908106
:104940009E7F90838170089581E0089568EE73E002
:1049500080E090E0AAD390E080E0089526E030E087
:1049600040E052EC61E070E090E080E097DF83E9A6
:1049700094E0E1D4892B21F083E994E0F6D4F7CFD9
:1049800090E080E00895CF92DF92EF92FF920F9334
:104990001F93CF93DF936B017A01E901198218828B
:1049A00083E994E0C8D4892B69F18601CC24C394AF
:1049B00082E0D82E80918604811110C083E994E0B2
:1049C000D4D40297B9F7C0928604F801D1928F012E
:1049D00088819981019699838883ECCF8881998118
:1049E0008E159F0578F483E994E0BFD48F3F980734
:1049F000A9F3F80181938F018881998101969983A8
:104A00008883ECCF90E080E0DF91CF911F910F91F0
:104A1000FF90EF90DF90CF9008950F931F93CF9367
:104A2000DF93EA01890183E994E033D6F801D18369
:104A3000C08390E080E0DF91CF911F910F910895A6
:104A4000CF92DF92EF92FF928091870491E0980FCE
:104A500090938704882369F021E030E03093890443
:104A60002093880480938704FF90EF90DF90CF908D
:104A700008957894E0914B01F0914C01C28CD38C55
:104A8000E48CF58C0E949C04B701A60190E080E0C4
:104A90000E940F04F894809187048150E3CFCF9354
:104AA000DF93109265051092640535D3EEDEC09158
:104AB0004B01D0914C01198218826FEF7FEFCB012F
:104AC0000E94910470E060E090E080E00E94130397
:104AD0000097B9F50E942805F8947894BE016E5DA0
:104AE0007F4F8A819B810E941603892B59F46FEFB7
:104AF0007FEFCB010E94A5030E948B04882311F055
:104B000081E08EA3F894F9DE0E948E04882311F0D0
:104B100080E008C00E948B048111FACF81E09EA141
:104B20009111F6CF80936405789478948091640510
:104B300081110AC00E94CA050E947104F89490E095
:104B400080E0DF91CF9108950E946F040E948E044F
:104B5000882381F081E0809365059091650581E06F
:104B6000911180E080936405809165058111E4DEF8
:104B7000EBDEDCCF0E948B048111ECCF81E09EA1A3
:104B80009111E9CF80E0E7CF5058BB27AA270ED07C
:104B90000DC1FED030F003D120F031F49F3F11F46D
:104BA0001EF4F3C00EF4E095E7FBE9C0E92F0FD146
:104BB00080F3BA17620773078407950718F071F43A
:104BC0009EF527C10EF4E0950B2EBA2FA02D0B01F8
:104BD000B90190010C01CA01A0011124FF27591B42
:104BE00099F0593F50F4503E68F11A16F040A22F48
:104BF000232F342F4427585FF3CF469537952795B9
:104C0000A795F0405395C9F77EF41F16BA0B620BB7
:104C1000730B840BBAF09150A1F0FF0FBB1F661FFE
:104C2000771F881FC2F70EC0BA0F621F731F841F41
:104C300048F4879577956795B795F7959E3F08F067
:104C4000B3CF9395880F08F09927EE0F9795879526
:104C5000089571D008F481E0089504D06894B111EA
:104C6000D9C00895BCD088F09F5790F0B92F9927EC
:104C7000B751A0F0D1F0660F771F881F991F1AF067
:104C8000BA95C9F712C0B13081F0C3D0B1E0089530
:104C9000C0C0672F782F8827B85F39F0B93FCCF3B1
:104CA000869577956795B395D9F73EF4909580955D
:104CB000709561957F4F8F4F9F4F0895E89409C07D
:104CC00097FB3EF490958095709561957F4F8F4F3F
:104CD0009F4F9923A9F0F92F96E9BB279395F69555
:104CE000879577956795B795F111F8CFFAF4BB0FD3
:104CF00011F460FF1BC06F5F7F4F8F4F9F4F16C037
:104D0000882311F096E911C0772321F09EE8872FC0
:104D1000762F05C0662371F096E8862F70E060E07C
:104D20002AF09A95660F771F881FDAF7880F9695F5
:104D3000879597F90895990F0008550FAA0BE0E899
:104D4000FEEF16161706E807F907C0F0121613064D
:104D5000E407F50798F0621B730B840B950B39F48D
:104D60000A2661F0232B242B252B21F408950A26F3
:104D700009F4A140A6958FEF811D811D089597F933
:104D80009F6780E870E060E008959FEF80EC0895F1
:104D900000240A941616170618060906089500241A
:104DA0000A9412161306140605060895092E039494
:104DB000000C11F4882352F0BB0F40F4BF2B11F408
:104DC00060FF04C06F5F7F4F8F4F9F4F089557FD67
:104DD0009058440F551F59F05F3F71F04795880F69
:104DE00097FB991F61F09F3F79F087950895121600
:104DF00013061406551FF2CF4695F1DF08C01616AC
:104E000017061806991FF1CF86957105610508945C
:104E10000895E894BB2766277727CB0197F9089573
:104E20008ADF08F48FEF08950BD0C0CFB1DF28F0F0
:104E3000B6DF18F0952309F0A2CFA7CF1124EACF4F
:104E4000C6DFA0F3959FD1F3950F50E0551F629FE9
:104E5000F001729FBB27F00DB11D639FAA27F00DD3
:104E6000B11DAA1F649F6627B00DA11D661F829FFA
:104E70002227B00DA11D621F739FB00DA11D621FDF
:104E8000839FA00D611D221F749F3327A00D611DFC
:104E9000231F849F600D211D822F762F6A2F1124DE
:104EA0009F5750408AF0E1F088234AF0EE0FFF1F31
:104EB000BB1F661F771F881F91505040A9F79E3F68
:104EC000510570F05CCFA6CF5F3FECF3983EDCF36A
:104ED000869577956795B795F795E7959F5FC1F7A5
:104EE000FE2B880F911D9695879597F90895089543
:104EF0008230E8F4E82FF0E0EE0FFF1FEF5CFE4F8A
:104F000071836083813041F0809169008C7F482BF0
:104F100040936900E89A089580916900837F440F67
:104F2000551F440F551F482B40936900E99A089577
:104F30001F920F920FB60F9211242F933F934F930E
:104F40005F936F937F938F939F93AF93BF93EF93F1
:104F5000FF93E0913101F09132010995FF91EF91BA
:104F6000BF91AF919F918F917F916F915F914F9181
:104F70003F912F910F900FBE0F901F9018951F9289
:104F80000F920FB60F9211242F933F934F935F937D
:104F90006F937F938F939F93AF93BF93EF93FF9301
:104FA000E0913301F09134010995FF91EF91BF91A8
:104FB000AF919F918F917F916F915F914F913F91B1
:104FC0002F910F900FBE0F901F9018951F920F9268
:104FD0000FB60F9211242F933F938F939F93AF930C
:104FE000BF9380918B0490918C04A0918D04B0911B
:104FF0008E0430918A0423E0230F2D3758F5019653
:10500000A11DB11D20938A0480938B0490938C047E
:10501000A0938D04B0938E0480918F04909190049E
:10502000A0919104B09192040196A11DB11D8093AD
:105030008F0490939004A0939104B0939204BF9135
:10504000AF919F918F913F912F910F900FBE0F9035
:105050001F90189526E8230F0296A11DB11DD2CFEF
:105060003FB7F89480918F0490919004A09191049F
:10507000B091920426B5A89B05C02F3F19F0019668
:10508000A11DB11D3FBFBA2FA92F982F8827BC01A2
:10509000CD01620F711D811D911D42E0660F771FCA
:1050A000881F991F4A95D1F708958F929F92AF92CA
:1050B000BF92CF92DF92EF92FF926B017C01D0DF23
:1050C0004B015C01C114D104E104F104D9F00ED309
:1050D000C7DF681979098A099B09683E7340810511
:1050E000910580F321E0C21AD108E108F10888EEA9
:1050F000880E83E0981EA11CB11CC114D104E104E8
:10510000F10431F7FF90EF90DF90CF90BF90AF9018
:105110009F908F900895789484B5826084BD84B503
:10512000816084BD85B5826085BD85B5816085BDA2
:10513000EEE6F0E0808181608083E1E8F0E01082BB
:10514000808182608083808181608083E0E8F0E0FC
:10515000808181608083E1EBF0E0808184608083E6
:10516000E0EBF0E0808181608083EAE7F0E080811D
:10517000846080838081826080838081816080837D
:105180008081806880831092C10008958E3008F07D
:105190008E502091350190E4299F90011124877051
:1051A000822B80937C0080917A00806480937A00C7
:1051B00080917A0086FDFCCF8091780090917900F3
:1051C0000895833081F028F4813099F08230A9F07D
:1051D00008958730A9F08830C9F08430B1F4809107
:1051E00080008F7D03C0809180008F778093800046
:1051F000089584B58F7784BD089584B58F7DFBCFE6
:105200008091B0008F778093B00008958091B000B6
:105210008F7DF9CFCF93DF9390E0FC01E458FF4FEF
:10522000249180579F4FFC0184918823C9F090E01E
:10523000880F991FFC01E854FF4FA591B491FC0120
:10524000E255FF4FC591D49161110DC09FB7F894FD
:105250008C91209582238C938881282328839FBF5B
:10526000DF91CF910895623051F49FB7F8943C914B
:10527000822F809583238C93E8812E2BEFCF8FB7DD
:10528000F894EC912E2B2C938FBFEACF1F93CF93E2
:10529000DF93282F30E0F901E859FF4F8491F9019D
:1052A000E458FF4FD491F901E057FF4FC491CC234C
:1052B000A1F0162F811185DFEC2FF0E0EE0FFF1F1C
:1052C000E255FF4FA591B4918FB7F894EC9111116D
:1052D00008C0D095DE23DC938FBFDF91CF911F9163
:1052E0000895DE2BF8CFCF93DF93282F30E0F9011C
:1052F000E859FF4F8491F901E458FF4FD491F90127
:10530000E057FF4FC491CC2399F081115ADFEC2F65
:10531000F0E0EE0FFF1FEC55FF4FA591B491EC911B
:10532000ED2381E090E009F480E0DF91CF910895D2
:1053300080E090E0FACFFC01918D228D892F90E0E2
:10534000805C9F4F821B91098F7399270895FC0100
:10535000918D828D981731F0828DE80FF11D858D2A
:1053600090E008958FEF9FEF0895FC01918D828D5D
:10537000981761F0A28DAE0FBF2FB11D5D968C9175
:10538000928D9F5F9F73928F90E008958FEF9FEFB4
:105390000895FC01538D448D252F30E0842F90E03B
:1053A000821B930B541710F0CF9608950197089520
:1053B000FC01A48DA80FB92FB11DA35ABF4F2C918A
:1053C000848D90E001968F739927848FA689B78981
:1053D0002C93A089B1898C91837080648C93938D78
:1053E000848D981306C00288F389E02D80818F7D1B
:1053F00080830895CF93DF93EC01888D8823B1F0EB
:10540000AA89BB89E889F9898C9185FD03C08081CF
:1054100086FD0CC00FB607FCF7CF8C9185FFF2CF4D
:10542000808185FFEDCFCE01C3DFEACFDF91CF9141
:105430000895EF92FF920F931F93CF93DF93EC01A8
:1054400081E0888F9B8D8C8D98131AC0E889F9892B
:10545000808185FF15C09FB7F894EE89FF8960832E
:10546000E889F98980818370806480839FBF81E0AF
:1054700090E0DF91CF911F910F91FF90EF900895F1
:10548000F62E0B8D10E00F5F1F4F0F731127E02ECC
:105490008C8D8E110BC00FB607FCFACFE889F98905
:1054A000808185FFF5CFCE0183DFF2CFEB8DEC0F4E
:1054B000FD2FF11DE35AFF4FF0829FB7F8940B8F39
:1054C000EA89FB8980818062D0CFCF92DF92EF9210
:1054D000FF921F93CF93DF93EC016A017B01122FA0
:1054E000E889F98982E08083C11481EED806E1045D
:1054F000F10499F060E079E08DE390E0A701960176
:105500000AD12150310941095109569547953795DE
:105510002795211580E1380790F0E889F9891082F4
:1055200060E874E88EE190E0A7019601F4D0215084
:105530003109410951095695479537952795EC85CD
:10554000FD853083EE85FF852083188EEC89FD89EB
:105550001083EA89FB89808180618083EA89FB89E5
:10556000808188608083EA89FB898081806880836C
:10557000EA89FB8980818F7D8083DF91CF911F91A4
:10558000FF90EF90DF90CF9008951F920F920FB68B
:105590000F9211242F938F939F93EF93FF93E0919A
:1055A000A304F091A4048081E091A904F091AA04DD
:1055B00082FD1BC090818091AC048F5F8F7320911E
:1055C000AD04821741F0E091AC04F0E0ED56FB4FE2
:1055D000958F8093AC04FF91EF919F918F912F91C4
:1055E0000F900FBE0F901F9018958081F4CF1F92DF
:1055F0000F920FB60F9211242F933F934F935F9307
:105600006F937F938F939F93AF93BF93EF93FF938A
:1056100083E994E0CDDEFF91EF91BF91AF919F912F
:105620008F917F916F915F914F913F912F910F904B
:105630000FBE0F901F901895E3E9F4E013821282D9
:1056400088EE93E0A0E0B0E084839583A683B783DF
:105650008FEC91E09183808385EC90E0958784873F
:1056600084EC90E09787868780EC90E0918B808B2C
:1056700081EC90E0938B828B82EC90E0958B848B15
:1056800086EC90E0978B868B118E128E138E148E83
:105690000895AF92BF92CF92DF92EF92FF920F9355
:1056A0001F93CF93DF936C017B018B01040F151FB8
:1056B000EB015E01AE18BF08C017D10759F0699120
:1056C000D601ED91FC910190F081E02DC601099584
:1056D000892B79F7C501DF91CF911F910F91FF9031
:1056E000EF90DF90CF90BF90AF9008950895AA1BE0
:1056F000BB1B51E107C0AA1FBB1FA617B70710F0BD
:10570000A61BB70B881F991F5A95A9F780959095EE
:10571000BC01CD010895A1E21A2EAA1BBB1BFD01FD
:105720000DC0AA1FBB1FEE1FFF1FA217B307E40780
:10573000F50720F0A21BB30BE40BF50B661F771FD8
:10574000881F991F1A9469F76095709580959095B8
:105750009B01AC01BD01CF010895EE0FFF1F059025
:10576000F491E02D099409D0A59F900DB49F900D60
:10577000A49F800D911D11240895A29FB001B39F95
:10578000C001A39F700D811D1124911DB29F700D4A
:10579000811D1124911D0895FB01DC0102C00190BF
:1057A0000D9241505040D8F70895DC0101C06D932F
:0C57B00041505040E0F70895F894FFCFFE
:1057BC000AD7233C000080BFFEFFFFFF01E8030077
:1057CC0000FFFF00000000FFFFFFFFFFFFFFFFFFD8
:1057DC00FF010001000100200038001000FFFFFF56
:1057EC00FF77277727010001FFFFFFFFFFFFFFFF78
:1057FC00FFFFFFFFFFFF05040302011502FF00B8C6
:10580C000EE40EFE009E0E240CFD00300E8A0EFCE3
:10581C0000760E240CF600670F240CF5003D0EA646
:10582C000FF400300FBD0FDE00E4137D16DD0053C6
:10583C0015240CDA008D119511D9009816A511E2DA
:10584C00007510240CE100B010240CE0002511248C
:10585C000CD6007C1A240CD5003213240CD400BEB8
:10586C0012240CD3002F12240CC000B411240CF001
:10587C0000E51A240CED00A21A240C0000000019FB
:0E588C002A492BC929FA299B29B529A72900E9
:00000001FF
